{
  "transactions": [
    {
      "hash": "0xcdf0281e0348dac8dd3ce923df4f3927d6da3e7be9823e2a4926e6d78110bb70",
      "transactionType": "CREATE",
      "contractName": "AurumGoldFaucet",
      "contractAddress": "0x25067322310e834498b1638423383b3e5603dd30",
      "function": null,
      "arguments": [
        "0x7769F56edC2a1882a51cec1d3c96F31482b5A241"
      ],
      "transaction": {
        "from": "0xafaec720b58cddd957e681fc9625f1f095c42a79",
        "gas": "0xfe3f4",
        "value": "0x0",
        "input": "0x6080604052678ac7230489e8000060025562015180600355348015610022575f5ffd5b50604051610e48380380610e488339818101604052810190610044919061022a565b335f73ffffffffffffffffffffffffffffffffffffffff168173ffffffffffffffffffffffffffffffffffffffff16036100b5575f6040517f1e4fbdf70000000000000000000000000000000000000000000000000000000081526004016100ac9190610264565b60405180910390fd5b6100c48161010b60201b60201c565b508060015f6101000a81548173ffffffffffffffffffffffffffffffffffffffff021916908373ffffffffffffffffffffffffffffffffffffffff1602179055505061027d565b5f5f5f9054906101000a900473ffffffffffffffffffffffffffffffffffffffff169050815f5f6101000a81548173ffffffffffffffffffffffffffffffffffffffff021916908373ffffffffffffffffffffffffffffffffffffffff1602179055508173ffffffffffffffffffffffffffffffffffffffff168173ffffffffffffffffffffffffffffffffffffffff167f8be0079c531659141344cd1fd0a4f28419497f9722a3daafe3b4186f6b6457e060405160405180910390a35050565b5f5ffd5b5f73ffffffffffffffffffffffffffffffffffffffff82169050919050565b5f6101f9826101d0565b9050919050565b610209816101ef565b8114610213575f5ffd5b50565b5f8151905061022481610200565b92915050565b5f6020828403121561023f5761023e6101cc565b5b5f61024c84828501610216565b91505092915050565b61025e816101ef565b82525050565b5f6020820190506102775f830184610255565b92915050565b610bbe8061028a5f395ff3fe608060405234801561000f575f5ffd5b50600436106100b2575f3560e01c80638da5cb5b1161006f5780638da5cb5b1461013e578063b1c7ef0c1461015c578063b77cf9c614610178578063ca1d209d146101a8578063f2fde38b146101c4578063fc0c546a146101e0576100b2565b80632e1a7d4d146100b65780634e71d92d146100d25780634fc3f41a146100dc578063715018a6146100f8578063787a08a614610102578063830953ab14610120575b5f5ffd5b6100d060048036038101906100cb91906108f8565b6101fe565b005b6100da6102e8565b005b6100f660048036038101906100f191906108f8565b6104e8565b005b610100610535565b005b61010a610548565b6040516101179190610932565b60405180910390f35b61012861054e565b6040516101359190610932565b60405180910390f35b610146610554565b604051610153919061098a565b60405180910390f35b610176600480360381019061017191906108f8565b61057b565b005b610192600480360381019061018d91906109cd565b6105c8565b60405161019f9190610932565b60405180910390f35b6101c260048036038101906101bd91906108f8565b6105dd565b005b6101de60048036038101906101d991906109cd565b6106c9565b005b6101e861074d565b6040516101f59190610a53565b60405180910390f35b610206610772565b805f8103610240576040517f67a7c1f500000000000000000000000000000000000000000000000000000000815260040160405180910390fd5b60015f9054906101000a900473ffffffffffffffffffffffffffffffffffffffff1673ffffffffffffffffffffffffffffffffffffffff1663a9059cbb610285610554565b846040518363ffffffff1660e01b81526004016102a3929190610a6c565b6020604051808303815f875af11580156102bf573d5f5f3e3d5ffd5b505050506040513d601f19601f820116820180604052508101906102e39190610ac8565b505050565b5f60045f3373ffffffffffffffffffffffffffffffffffffffff1673ffffffffffffffffffffffffffffffffffffffff1681526020019081526020015f20541415801561037e575060035460045f3373ffffffffffffffffffffffffffffffffffffffff1673ffffffffffffffffffffffffffffffffffffffff1681526020019081526020015f205461037b9190610b20565b42105b156103b5576040517fe985e83500000000000000000000000000000000000000000000000000000000815260040160405180910390fd5b4260045f3373ffffffffffffffffffffffffffffffffffffffff1673ffffffffffffffffffffffffffffffffffffffff1681526020019081526020015f208190555060015f9054906101000a900473ffffffffffffffffffffffffffffffffffffffff1673ffffffffffffffffffffffffffffffffffffffff1663a9059cbb336002546040518363ffffffff1660e01b8152600401610455929190610a6c565b6020604051808303815f875af1158015610471573d5f5f3e3d5ffd5b505050506040513d601f19601f820116820180604052508101906104959190610ac8565b503373ffffffffffffffffffffffffffffffffffffffff167fd8138f8a3f377c5259ca548e70e4c2de94f129f5a11036a15b69513cba2b426a6002546040516104de9190610932565b60405180910390a2565b6104f0610772565b805f810361052a576040517f67a7c1f500000000000000000000000000000000000000000000000000000000815260040160405180910390fd5b816003819055505050565b61053d610772565b6105465f6107f9565b565b60035481565b60025481565b5f5f5f9054906101000a900473ffffffffffffffffffffffffffffffffffffffff16905090565b610583610772565b805f81036105bd576040517f67a7c1f500000000000000000000000000000000000000000000000000000000815260040160405180910390fd5b816002819055505050565b6004602052805f5260405f205f915090505481565b6105e5610772565b805f810361061f576040517f67a7c1f500000000000000000000000000000000000000000000000000000000815260040160405180910390fd5b60015f9054906101000a900473ffffffffffffffffffffffffffffffffffffffff1673ffffffffffffffffffffffffffffffffffffffff166323b872dd610664610554565b30856040518463ffffffff1660e01b815260040161068493929190610b53565b6020604051808303815f875af11580156106a0573d5f5f3e3d5ffd5b505050506040513d601f19601f820116820180604052508101906106c49190610ac8565b505050565b6106d1610772565b5f73ffffffffffffffffffffffffffffffffffffffff168173ffffffffffffffffffffffffffffffffffffffff1603610741575f6040517f1e4fbdf7000000000000000000000000000000000000000000000000000000008152600401610738919061098a565b60405180910390fd5b61074a816107f9565b50565b60015f9054906101000a900473ffffffffffffffffffffffffffffffffffffffff1681565b61077a6108ba565b73ffffffffffffffffffffffffffffffffffffffff16610798610554565b73ffffffffffffffffffffffffffffffffffffffff16146107f7576107bb6108ba565b6040517f118cdaa70000000000000000000000000000000000000000000000000000000081526004016107ee919061098a565b60405180910390fd5b565b5f5f5f9054906101000a900473ffffffffffffffffffffffffffffffffffffffff169050815f5f6101000a81548173ffffffffffffffffffffffffffffffffffffffff021916908373ffffffffffffffffffffffffffffffffffffffff1602179055508173ffffffffffffffffffffffffffffffffffffffff168173ffffffffffffffffffffffffffffffffffffffff167f8be0079c531659141344cd1fd0a4f28419497f9722a3daafe3b4186f6b6457e060405160405180910390a35050565b5f33905090565b5f5ffd5b5f819050919050565b6108d7816108c5565b81146108e1575f5ffd5b50565b5f813590506108f2816108ce565b92915050565b5f6020828403121561090d5761090c6108c1565b5b5f61091a848285016108e4565b91505092915050565b61092c816108c5565b82525050565b5f6020820190506109455f830184610923565b92915050565b5f73ffffffffffffffffffffffffffffffffffffffff82169050919050565b5f6109748261094b565b9050919050565b6109848161096a565b82525050565b5f60208201905061099d5f83018461097b565b92915050565b6109ac8161096a565b81146109b6575f5ffd5b50565b5f813590506109c7816109a3565b92915050565b5f602082840312156109e2576109e16108c1565b5b5f6109ef848285016109b9565b91505092915050565b5f819050919050565b5f610a1b610a16610a118461094b565b6109f8565b61094b565b9050919050565b5f610a2c82610a01565b9050919050565b5f610a3d82610a22565b9050919050565b610a4d81610a33565b82525050565b5f602082019050610a665f830184610a44565b92915050565b5f604082019050610a7f5f83018561097b565b610a8c6020830184610923565b9392505050565b5f8115159050919050565b610aa781610a93565b8114610ab1575f5ffd5b50565b5f81519050610ac281610a9e565b92915050565b5f60208284031215610add57610adc6108c1565b5b5f610aea84828501610ab4565b91505092915050565b7f4e487b71000000000000000000000000000000000000000000000000000000005f52601160045260245ffd5b5f610b2a826108c5565b9150610b35836108c5565b9250828201905080821115610b4d57610b4c610af3565b5b92915050565b5f606082019050610b665f83018661097b565b610b73602083018561097b565b610b806040830184610923565b94935050505056fea2646970667358221220628ba510893c80975a5570e91a1774e466c2c9e9fe04e508d7e774acf22168f864736f6c634300082100330000000000000000000000007769f56edc2a1882a51cec1d3c96f31482b5a241",
        "nonce": "0x1d",
        "chainId": "0xaa36a7"
      },
      "additionalContracts": [],
      "isFixedGasLimit": false
    },
    {
      "hash": "0x709a732679fbfc0b5302ef3da7d2887bde0b74066c0978d44d5c31850550bd70",
      "transactionType": "CALL",
      "contractName": "AurumGold",
      "contractAddress": "0x7769f56edc2a1882a51cec1d3c96f31482b5a241",
      "function": "approve(address,uint256)",
      "arguments": [
        "0x25067322310E834498B1638423383B3E5603DD30",
        "100000000000000000000000"
      ],
      "transaction": {
        "from": "0xafaec720b58cddd957e681fc9625f1f095c42a79",
        "to": "0x7769f56edc2a1882a51cec1d3c96f31482b5a241",
        "gas": "0xfd73",
        "value": "0x0",
        "input": "0x095ea7b300000000000000000000000025067322310e834498b1638423383b3e5603dd3000000000000000000000000000000000000000000000152d02c7e14af6800000",
        "nonce": "0x1e",
        "chainId": "0xaa36a7"
      },
      "additionalContracts": [],
      "isFixedGasLimit": false
    },
    {
      "hash": "0xa83fdcc0be83756346baf0a741187e65dc22c942a09149d9551e17baa3444cc6",
      "transactionType": "CALL",
      "contractName": "AurumGoldFaucet",
      "contractAddress": "0x25067322310e834498b1638423383b3e5603dd30",
      "function": "fund(uint256)",
      "arguments": [
        "100000000000000000000000"
      ],
      "transaction": {
        "from": "0xafaec720b58cddd957e681fc9625f1f095c42a79",
        "to": "0x25067322310e834498b1638423383b3e5603dd30",
        "gas": "0x1313b",
        "value": "0x0",
        "input": "0xca1d209d00000000000000000000000000000000000000000000152d02c7e14af6800000",
        "nonce": "0x1f",
        "chainId": "0xaa36a7"
      },
      "additionalContracts": [],
      "isFixedGasLimit": false
    }
  ],
  "receipts": [
    {
      "status": "0x1",
      "cumulativeGasUsed": "0x165b63e",
      "logs": [
        {
          "address": "0x25067322310e834498b1638423383b3e5603dd30",
          "topics": [
            "0x8be0079c531659141344cd1fd0a4f28419497f9722a3daafe3b4186f6b6457e0",
            "0x0000000000000000000000000000000000000000000000000000000000000000",
            "0x000000000000000000000000afaec720b58cddd957e681fc9625f1f095c42a79"
          ],
          "data": "0x",
          "blockHash": "0xf942f4ed14807c8353aaed5ff7d9ff10b9c0bf8c720974a000a0ea8779553068",
          "blockNumber": "0x9ef3a9",
          "blockTimestamp": "0x69af3fbc",
          "transactionHash": "0xa83fdcc0be83756346baf0a741187e65dc22c942a09149d9551e17baa3444cc6",
          "transactionIndex": "0x7c",
          "logIndex": "0x1ce",
          "removed": false
        }
      ],
      "logsBloom": "0x20000000000000000000000000000000000000000000002000800000000000000000000000000000000000000000000000000002000000000000000000000000000000000000000000000000000000000001000000000000000000000000000000000000020000000000000000000800000000000000000000000000000000400000000000000000000000000000000000000000000000000000000000000000000000000000000000000000000000000000000000000000001000000000000000000000000000000000000000000000000000000000000000000010000020000000000000000000000000000000000000000100000000000000000000000000",
      "type": "0x2",
      "transactionHash": "0xa83fdcc0be83756346baf0a741187e65dc22c942a09149d9551e17baa3444cc6",
      "transactionIndex": "0x7c",
      "blockHash": "0xf942f4ed14807c8353aaed5ff7d9ff10b9c0bf8c720974a000a0ea8779553068",
      "blockNumber": "0x9ef3a9",
      "gasUsed": "0xc3932",
      "effectiveGasPrice": "0x3c50e01",
      "from": "0xafaec720b58cddd957e681fc9625f1f095c42a79",
      "to": null,
      "contractAddress": "0x25067322310e834498b1638423383b3e5603dd30"
    },
    {
      "status": "0x1",
      "cumulativeGasUsed": "0x1666dbd",
      "logs": [
        {
          "address": "0x7769f56edc2a1882a51cec1d3c96f31482b5a241",
          "topics": [
            "0x8c5be1e5ebec7d5bd14f71427d1e84f3dd0314c0f7b2291e5b200ac8c7c3b925",
            "0x000000000000000000000000afaec720b58cddd957e681fc9625f1f095c42a79",
            "0x00000000000000000000000025067322310e834498b1638423383b3e5603dd30"
          ],
          "data": "0x00000000000000000000000000000000000000000000152d02c7e14af6800000",
          "blockHash": "0xf942f4ed14807c8353aaed5ff7d9ff10b9c0bf8c720974a000a0ea8779553068",
          "blockNumber": "0x9ef3a9",
          "blockTimestamp": "0x69af3fbc",
          "transactionHash": "0x709a732679fbfc0b5302ef3da7d2887bde0b74066c0978d44d5c31850550bd70",
          "transactionIndex": "0x7d",
          "logIndex": "0x1cf",
          "removed": false
        }
      ],
      "logsBloom": "0x00000004000000000100000000000000000000000000000000000000200000000000000000000000000000000000000000000000000000000000000000200000000000000000000000000000000000000000000000000000000000000000000000000000000000000000000004000000000000000000000000000000000000000000000000000000000000000000000000000000000000040000000000000000020000000000000000000000000000000000000000000000001000000000000000000000000000000000000000000000000000000000000000000010000000000010000000000000000000000000000000000100000000000000000000000004",
      "type": "0x2",
      "transactionHash": "0x709a732679fbfc0b5302ef3da7d2887bde0b74066c0978d44d5c31850550bd70",
      "transactionIndex": "0x7d",
      "blockHash": "0xf942f4ed14807c8353aaed5ff7d9ff10b9c0bf8c720974a000a0ea8779553068",
      "blockNumber": "0x9ef3a9",
      "gasUsed": "0xb77f",
      "effectiveGasPrice": "0x3c50e01",
      "from": "0xafaec720b58cddd957e681fc9625f1f095c42a79",
      "to": "0x7769f56edc2a1882a51cec1d3c96f31482b5a241",
      "contractAddress": null
    },
    {
      "status": "0x1",
      "cumulativeGasUsed": "0x1674ab9",
      "logs": [
        {
          "address": "0x7769f56edc2a1882a51cec1d3c96f31482b5a241",
          "topics": [
            "0xddf252ad1be2c89b69c2b068fc378daa952ba7f163c4a11628f55a4df523b3ef",
            "0x000000000000000000000000afaec720b58cddd957e681fc9625f1f095c42a79",
            "0x00000000000000000000000025067322310e834498b1638423383b3e5603dd30"
          ],
          "data": "0x00000000000000000000000000000000000000000000152d02c7e14af6800000",
          "blockHash": "0xf942f4ed14807c8353aaed5ff7d9ff10b9c0bf8c720974a000a0ea8779553068",
          "blockNumber": "0x9ef3a9",
          "blockTimestamp": "0x69af3fbc",
          "transactionHash": "0xcdf0281e0348dac8dd3ce923df4f3927d6da3e7be9823e2a4926e6d78110bb70",
          "transactionIndex": "0x7e",
          "logIndex": "0x1d0",
          "removed": false
        }
      ],
      "logsBloom": "0x00000004000000000100000000000000000000000000000000000000200000000000000000000000000000000000000000000000000000000000000000000000000000000000000000000008000000000000000000000000000000000000000000000000000000000000000004000000000000000000000000000010000000000000000000000000000000000000000000000000000000040000000000000000000000000000000000000000000000000000000000000000001000000000000000000002000000000000000000000000000000000000000000000010000000000000000000000000000000000000000000000100000000000000000000000004",
      "type": "0x2",
      "transactionHash": "0xcdf0281e0348dac8dd3ce923df4f3927d6da3e7be9823e2a4926e6d78110bb70",
      "transactionIndex": "0x7e",
      "blockHash": "0xf942f4ed14807c8353aaed5ff7d9ff10b9c0bf8c720974a000a0ea8779553068",
      "blockNumber": "0x9ef3a9",
      "gasUsed": "0xdcfc",
      "effectiveGasPrice": "0x3c50e01",
      "from": "0xafaec720b58cddd957e681fc9625f1f095c42a79",
      "to": "0x25067322310e834498b1638423383b3e5603dd30",
      "contractAddress": null
    }
  ],
  "libraries": [],
  "pending": [],
  "returns": {
    "0": {
      "internal_type": "contract AurumGoldFaucet",
      "value": "0x25067322310E834498B1638423383B3E5603DD30"
    }
  },
  "timestamp": 1773092813847,
  "chain": 11155111,
  "commit": null
}